{
  "_format": "hh-sol-artifact-1",
  "contractName": "DecentralBank",
  "sourceName": "contracts/DecentralBank.sol",
  "abi": [
    {
      "inputs": [
        {
          "internalType": "contract RewardToken",
          "name": "_rwd",
          "type": "address"
        },
        {
          "internalType": "contract Sikka",
          "name": "_sikka",
          "type": "address"
        }
      ],
      "stateMutability": "nonpayable",
      "type": "constructor"
    },
    {
      "inputs": [
        {
          "internalType": "uint256",
          "name": "amount",
          "type": "uint256"
        }
      ],
      "name": "depositTokens",
      "outputs": [],
      "stateMutability": "nonpayable",
      "type": "function"
    },
    {
      "inputs": [
        {
          "internalType": "address",
          "name": "",
          "type": "address"
        }
      ],
      "name": "depositorBalance",
      "outputs": [
        {
          "internalType": "uint256",
          "name": "",
          "type": "uint256"
        }
      ],
      "stateMutability": "view",
      "type": "function"
    },
    {
      "inputs": [
        {
          "internalType": "address",
          "name": "recipient",
          "type": "address"
        }
      ],
      "name": "issueRewardTokens",
      "outputs": [],
      "stateMutability": "nonpayable",
      "type": "function"
    },
    {
      "inputs": [],
      "name": "name",
      "outputs": [
        {
          "internalType": "string",
          "name": "",
          "type": "string"
        }
      ],
      "stateMutability": "view",
      "type": "function"
    },
    {
      "inputs": [],
      "name": "owner",
      "outputs": [
        {
          "internalType": "address",
          "name": "",
          "type": "address"
        }
      ],
      "stateMutability": "view",
      "type": "function"
    },
    {
      "inputs": [],
      "name": "withdrawTokens",
      "outputs": [],
      "stateMutability": "nonpayable",
      "type": "function"
    }
  ],
  "bytecode": "0x60806040526040518060400160405280600e81526020017f444543454e5452414c2042414e4b000000000000000000000000000000000000815250600090805190602001906200005192919062000150565b503480156200005f57600080fd5b50604051620010d4380380620010d48339818101604052810190620000859190620002c3565b33600160006101000a81548173ffffffffffffffffffffffffffffffffffffffff021916908373ffffffffffffffffffffffffffffffffffffffff16021790555081600260006101000a81548173ffffffffffffffffffffffffffffffffffffffff021916908373ffffffffffffffffffffffffffffffffffffffff16021790555080600360006101000a81548173ffffffffffffffffffffffffffffffffffffffff021916908373ffffffffffffffffffffffffffffffffffffffff16021790555050506200036f565b8280546200015e9062000339565b90600052602060002090601f016020900481019282620001825760008555620001ce565b82601f106200019d57805160ff1916838001178555620001ce565b82800160010185558215620001ce579182015b82811115620001cd578251825591602001919060010190620001b0565b5b509050620001dd9190620001e1565b5090565b5b80821115620001fc576000816000905550600101620001e2565b5090565b600080fd5b600073ffffffffffffffffffffffffffffffffffffffff82169050919050565b6000620002328262000205565b9050919050565b6000620002468262000225565b9050919050565b620002588162000239565b81146200026457600080fd5b50565b60008151905062000278816200024d565b92915050565b60006200028b8262000225565b9050919050565b6200029d816200027e565b8114620002a957600080fd5b50565b600081519050620002bd8162000292565b92915050565b60008060408385031215620002dd57620002dc62000200565b5b6000620002ed8582860162000267565b92505060206200030085828601620002ac565b9150509250929050565b7f4e487b7100000000000000000000000000000000000000000000000000000000600052602260045260246000fd5b600060028204905060018216806200035257607f821691505b602082108114156200036957620003686200030a565b5b50919050565b610d55806200037f6000396000f3fe608060405234801561001057600080fd5b50600436106100615760003560e01c80620894291461006657806306fdde031461008257806344ddd382146100a05780638d8f2adb146100d05780638da5cb5b146100da578063dd49756e146100f8575b600080fd5b610080600480360381019061007b91906107b8565b610114565b005b61008a61031c565b604051610097919061087e565b60405180910390f35b6100ba60048036038101906100b591906107b8565b6103aa565b6040516100c791906108b9565b60405180910390f35b6100d86103c2565b005b6100e2610602565b6040516100ef91906108e3565b60405180910390f35b610112600480360381019061010d919061092a565b610628565b005b600160009054906101000a900473ffffffffffffffffffffffffffffffffffffffff1673ffffffffffffffffffffffffffffffffffffffff163373ffffffffffffffffffffffffffffffffffffffff16146101a4576040517f08c379a000000000000000000000000000000000000000000000000000000000815260040161019b906109c9565b60405180910390fd5b6802b5e3af16b1880000600460008373ffffffffffffffffffffffffffffffffffffffff1673ffffffffffffffffffffffffffffffffffffffff16815260200190815260200160002054101561022f576040517f08c379a000000000000000000000000000000000000000000000000000000000815260040161022690610a5b565b60405180910390fd5b60006009600460008473ffffffffffffffffffffffffffffffffffffffff1673ffffffffffffffffffffffffffffffffffffffff1681526020019081526020016000205461027d9190610ad9565b9050600081111561031857600260009054906101000a900473ffffffffffffffffffffffffffffffffffffffff1673ffffffffffffffffffffffffffffffffffffffff1663a9059cbb83836040518363ffffffff1660e01b81526004016102e5929190610b0a565b600060405180830381600087803b1580156102ff57600080fd5b505af1158015610313573d6000803e3d6000fd5b505050505b5050565b6000805461032990610b62565b80601f016020809104026020016040519081016040528092919081815260200182805461035590610b62565b80156103a25780601f10610377576101008083540402835291602001916103a2565b820191906000526020600020905b81548152906001019060200180831161038557829003601f168201915b505050505081565b60046020528060005260406000206000915090505481565b6000600460003373ffffffffffffffffffffffffffffffffffffffff1673ffffffffffffffffffffffffffffffffffffffff1681526020019081526020016000205411610444576040517f08c379a000000000000000000000000000000000000000000000000000000000815260040161043b90610be0565b60405180910390fd5b6000600460003373ffffffffffffffffffffffffffffffffffffffff1673ffffffffffffffffffffffffffffffffffffffff16815260200190815260200160002054905060006009826104979190610ad9565b90506000600460003373ffffffffffffffffffffffffffffffffffffffff1673ffffffffffffffffffffffffffffffffffffffff16815260200190815260200160002081905550600260009054906101000a900473ffffffffffffffffffffffffffffffffffffffff1673ffffffffffffffffffffffffffffffffffffffff166323b872dd3330846040518463ffffffff1660e01b815260040161053d93929190610c00565b600060405180830381600087803b15801561055757600080fd5b505af115801561056b573d6000803e3d6000fd5b50505050600360009054906101000a900473ffffffffffffffffffffffffffffffffffffffff1673ffffffffffffffffffffffffffffffffffffffff1663a9059cbb33846040518363ffffffff1660e01b81526004016105cc929190610b0a565b600060405180830381600087803b1580156105e657600080fd5b505af11580156105fa573d6000803e3d6000fd5b505050505050565b600160009054906101000a900473ffffffffffffffffffffffffffffffffffffffff1681565b6000811161066b576040517f08c379a000000000000000000000000000000000000000000000000000000000815260040161066290610ca9565b60405180910390fd5b600360009054906101000a900473ffffffffffffffffffffffffffffffffffffffff1673ffffffffffffffffffffffffffffffffffffffff166323b872dd3330846040518463ffffffff1660e01b81526004016106ca93929190610c00565b600060405180830381600087803b1580156106e457600080fd5b505af11580156106f8573d6000803e3d6000fd5b5050505080600460003373ffffffffffffffffffffffffffffffffffffffff1673ffffffffffffffffffffffffffffffffffffffff168152602001908152602001600020600082825461074b9190610cc9565b9250508190555050565b600080fd5b600073ffffffffffffffffffffffffffffffffffffffff82169050919050565b60006107858261075a565b9050919050565b6107958161077a565b81146107a057600080fd5b50565b6000813590506107b28161078c565b92915050565b6000602082840312156107ce576107cd610755565b5b60006107dc848285016107a3565b91505092915050565b600081519050919050565b600082825260208201905092915050565b60005b8381101561081f578082015181840152602081019050610804565b8381111561082e576000848401525b50505050565b6000601f19601f8301169050919050565b6000610850826107e5565b61085a81856107f0565b935061086a818560208601610801565b61087381610834565b840191505092915050565b600060208201905081810360008301526108988184610845565b905092915050565b6000819050919050565b6108b3816108a0565b82525050565b60006020820190506108ce60008301846108aa565b92915050565b6108dd8161077a565b82525050565b60006020820190506108f860008301846108d4565b92915050565b610907816108a0565b811461091257600080fd5b50565b600081359050610924816108fe565b92915050565b6000602082840312156109405761093f610755565b5b600061094e84828501610915565b91505092915050565b7f4f6e6c79206f776e657220697320616c6c6f77656420746f206973737565207260008201527f657761726420746f6b656e730000000000000000000000000000000000000000602082015250565b60006109b3602c836107f0565b91506109be82610957565b604082019050919050565b600060208201905081810360008301526109e2816109a6565b9050919050565b7f526563697069656e74206973206e6f74207175616c696669656420666f72207260008201527f657761726420746f6b656e730000000000000000000000000000000000000000602082015250565b6000610a45602c836107f0565b9150610a50826109e9565b604082019050919050565b60006020820190508181036000830152610a7481610a38565b9050919050565b7f4e487b7100000000000000000000000000000000000000000000000000000000600052601260045260246000fd5b7f4e487b7100000000000000000000000000000000000000000000000000000000600052601160045260246000fd5b6000610ae4826108a0565b9150610aef836108a0565b925082610aff57610afe610a7b565b5b828204905092915050565b6000604082019050610b1f60008301856108d4565b610b2c60208301846108aa565b9392505050565b7f4e487b7100000000000000000000000000000000000000000000000000000000600052602260045260246000fd5b60006002820490506001821680610b7a57607f821691505b60208210811415610b8e57610b8d610b33565b5b50919050565b7f496e73756666696369656e742042616c616e6365000000000000000000000000600082015250565b6000610bca6014836107f0565b9150610bd582610b94565b602082019050919050565b60006020820190508181036000830152610bf981610bbd565b9050919050565b6000606082019050610c1560008301866108d4565b610c2260208301856108d4565b610c2f60408301846108aa565b949350505050565b7f4465706f73697420616d6f756e742073686f756c64206265206772656174657260008201527f207468616e203000000000000000000000000000000000000000000000000000602082015250565b6000610c936027836107f0565b9150610c9e82610c37565b604082019050919050565b60006020820190508181036000830152610cc281610c86565b9050919050565b6000610cd4826108a0565b9150610cdf836108a0565b9250827fffffffffffffffffffffffffffffffffffffffffffffffffffffffffffffffff03821115610d1457610d13610aaa565b5b82820190509291505056fea26469706673582212203eaff459e5bc752f7c33ed679db71e1309991133b46ca6205497e0b1da0e5e4764736f6c63430008090033",
  "linkReferences": {},
  "deployedLinkReferences": {}
}