{
  "_format": "hh-sol-artifact-1",
  "contractName": "RewardToken",
  "sourceName": "contracts/RewardToken.sol",
  "abi": [
    {
      "inputs": [],
      "stateMutability": "nonpayable",
      "type": "constructor"
    },
    {
      "anonymous": false,
      "inputs": [
        {
          "indexed": false,
          "internalType": "address",
          "name": "_owner",
          "type": "address"
        },
        {
          "indexed": false,
          "internalType": "address",
          "name": "_spender",
          "type": "address"
        },
        {
          "indexed": false,
          "internalType": "uint256",
          "name": "_amount",
          "type": "uint256"
        }
      ],
      "name": "Approve",
      "type": "event"
    },
    {
      "anonymous": false,
      "inputs": [
        {
          "indexed": false,
          "internalType": "address",
          "name": "_from",
          "type": "address"
        },
        {
          "indexed": false,
          "internalType": "address",
          "name": "_to",
          "type": "address"
        },
        {
          "indexed": false,
          "internalType": "uint256",
          "name": "_amount",
          "type": "uint256"
        }
      ],
      "name": "Transfer",
      "type": "event"
    },
    {
      "inputs": [
        {
          "internalType": "address",
          "name": "spender",
          "type": "address"
        },
        {
          "internalType": "uint256",
          "name": "amount",
          "type": "uint256"
        }
      ],
      "name": "approve",
      "outputs": [],
      "stateMutability": "nonpayable",
      "type": "function"
    },
    {
      "inputs": [
        {
          "internalType": "address",
          "name": "",
          "type": "address"
        },
        {
          "internalType": "address",
          "name": "",
          "type": "address"
        }
      ],
      "name": "approvedToSpend",
      "outputs": [
        {
          "internalType": "uint256",
          "name": "",
          "type": "uint256"
        }
      ],
      "stateMutability": "view",
      "type": "function"
    },
    {
      "inputs": [
        {
          "internalType": "address",
          "name": "",
          "type": "address"
        }
      ],
      "name": "balanceOf",
      "outputs": [
        {
          "internalType": "uint256",
          "name": "",
          "type": "uint256"
        }
      ],
      "stateMutability": "view",
      "type": "function"
    },
    {
      "inputs": [],
      "name": "decimals",
      "outputs": [
        {
          "internalType": "uint8",
          "name": "",
          "type": "uint8"
        }
      ],
      "stateMutability": "view",
      "type": "function"
    },
    {
      "inputs": [],
      "name": "name",
      "outputs": [
        {
          "internalType": "string",
          "name": "",
          "type": "string"
        }
      ],
      "stateMutability": "view",
      "type": "function"
    },
    {
      "inputs": [],
      "name": "symbol",
      "outputs": [
        {
          "internalType": "string",
          "name": "",
          "type": "string"
        }
      ],
      "stateMutability": "view",
      "type": "function"
    },
    {
      "inputs": [],
      "name": "totalSupply",
      "outputs": [
        {
          "internalType": "uint256",
          "name": "",
          "type": "uint256"
        }
      ],
      "stateMutability": "view",
      "type": "function"
    },
    {
      "inputs": [
        {
          "internalType": "address",
          "name": "to",
          "type": "address"
        },
        {
          "internalType": "uint256",
          "name": "amount",
          "type": "uint256"
        }
      ],
      "name": "transfer",
      "outputs": [],
      "stateMutability": "nonpayable",
      "type": "function"
    },
    {
      "inputs": [
        {
          "internalType": "address",
          "name": "from",
          "type": "address"
        },
        {
          "internalType": "address",
          "name": "to",
          "type": "address"
        },
        {
          "internalType": "uint256",
          "name": "amount",
          "type": "uint256"
        }
      ],
      "name": "transferFrom",
      "outputs": [],
      "stateMutability": "nonpayable",
      "type": "function"
    }
  ],
  "bytecode": "0x60806040526040518060400160405280600681526020017f5245574152440000000000000000000000000000000000000000000000000000815250600090805190602001906200005192919062000124565b506040518060400160405280600381526020017f5257440000000000000000000000000000000000000000000000000000000000815250600190805190602001906200009f92919062000124565b5069d3c21bcecceda10000006002556012600360006101000a81548160ff021916908360ff160217905550348015620000d757600080fd5b50600254600460003373ffffffffffffffffffffffffffffffffffffffff1673ffffffffffffffffffffffffffffffffffffffff1681526020019081526020016000208190555062000239565b828054620001329062000203565b90600052602060002090601f016020900481019282620001565760008555620001a2565b82601f106200017157805160ff1916838001178555620001a2565b82800160010185558215620001a2579182015b82811115620001a157825182559160200191906001019062000184565b5b509050620001b19190620001b5565b5090565b5b80821115620001d0576000816000905550600101620001b6565b5090565b7f4e487b7100000000000000000000000000000000000000000000000000000000600052602260045260246000fd5b600060028204905060018216806200021c57607f821691505b60208210811415620002335762000232620001d4565b5b50919050565b610dff80620002496000396000f3fe608060405234801561001057600080fd5b50600436106100935760003560e01c806323b872dd1161006657806323b872dd14610120578063313ce5671461013c57806370a082311461015a57806395d89b411461018a578063a9059cbb146101a857610093565b806306fdde0314610098578063095ea7b3146100b65780630b846e4a146100d257806318160ddd14610102575b600080fd5b6100a06101c4565b6040516100ad91906109e1565b60405180910390f35b6100d060048036038101906100cb9190610a9c565b610252565b005b6100ec60048036038101906100e79190610adc565b610394565b6040516100f99190610b2b565b60405180910390f35b61010a6103b9565b6040516101179190610b2b565b60405180910390f35b61013a60048036038101906101359190610b46565b6103bf565b005b6101446105fd565b6040516101519190610bb5565b60405180910390f35b610174600480360381019061016f9190610bd0565b610610565b6040516101819190610b2b565b60405180910390f35b610192610628565b60405161019f91906109e1565b60405180910390f35b6101c260048036038101906101bd9190610a9c565b6106b6565b005b600080546101d190610c2c565b80601f01602080910402602001604051908101604052809291908181526020018280546101fd90610c2c565b801561024a5780601f1061021f5761010080835404028352916020019161024a565b820191906000526020600020905b81548152906001019060200180831161022d57829003601f168201915b505050505081565b80600460003373ffffffffffffffffffffffffffffffffffffffff1673ffffffffffffffffffffffffffffffffffffffff1681526020019081526020016000205410156102d4576040517f08c379a00000000000000000000000000000000000000000000000000000000081526004016102cb90610caa565b60405180910390fd5b80600560003373ffffffffffffffffffffffffffffffffffffffff1673ffffffffffffffffffffffffffffffffffffffff16815260200190815260200160002060008473ffffffffffffffffffffffffffffffffffffffff1673ffffffffffffffffffffffffffffffffffffffff168152602001908152602001600020819055507f6e11fb1b7f119e3f2fa29896ef5fdf8b8a2d0d4df6fe90ba8668e7d8b2ffa25e33838360405161038893929190610cd9565b60405180910390a15050565b6005602052816000526040600020602052806000526040600020600091509150505481565b60025481565b80600560008573ffffffffffffffffffffffffffffffffffffffff1673ffffffffffffffffffffffffffffffffffffffff16815260200190815260200160002060003373ffffffffffffffffffffffffffffffffffffffff1673ffffffffffffffffffffffffffffffffffffffff16815260200190815260200160002054101561047e576040517f08c379a000000000000000000000000000000000000000000000000000000000815260040161047590610caa565b60405180910390fd5b80600460008573ffffffffffffffffffffffffffffffffffffffff1673ffffffffffffffffffffffffffffffffffffffff16815260200190815260200160002060008282546104cd9190610d3f565b9250508190555080600560008573ffffffffffffffffffffffffffffffffffffffff1673ffffffffffffffffffffffffffffffffffffffff16815260200190815260200160002060003373ffffffffffffffffffffffffffffffffffffffff1673ffffffffffffffffffffffffffffffffffffffff16815260200190815260200160002060008282546105609190610d3f565b9250508190555080600460008473ffffffffffffffffffffffffffffffffffffffff1673ffffffffffffffffffffffffffffffffffffffff16815260200190815260200160002060008282546105b69190610d73565b925050819055507fddf252ad1be2c89b69c2b068fc378daa952ba7f163c4a11628f55a4df523b3ef8383836040516105f093929190610cd9565b60405180910390a1505050565b600360009054906101000a900460ff1681565b60046020528060005260406000206000915090505481565b6001805461063590610c2c565b80601f016020809104026020016040519081016040528092919081815260200182805461066190610c2c565b80156106ae5780601f10610683576101008083540402835291602001916106ae565b820191906000526020600020905b81548152906001019060200180831161069157829003601f168201915b505050505081565b80600460003373ffffffffffffffffffffffffffffffffffffffff1673ffffffffffffffffffffffffffffffffffffffff168152602001908152602001600020541015610738576040517f08c379a000000000000000000000000000000000000000000000000000000000815260040161072f90610caa565b60405180910390fd5b6000600460008473ffffffffffffffffffffffffffffffffffffffff1673ffffffffffffffffffffffffffffffffffffffff16815260200190815260200160002054111561082557600460008373ffffffffffffffffffffffffffffffffffffffff1673ffffffffffffffffffffffffffffffffffffffff16815260200190815260200160002054816107cb9190610d3f565b600460003373ffffffffffffffffffffffffffffffffffffffff1673ffffffffffffffffffffffffffffffffffffffff16815260200190815260200160002060008282546108199190610d3f565b925050819055506108c5565b6000600460003373ffffffffffffffffffffffffffffffffffffffff1673ffffffffffffffffffffffffffffffffffffffff1681526020019081526020016000205414156108c45780600460003373ffffffffffffffffffffffffffffffffffffffff1673ffffffffffffffffffffffffffffffffffffffff16815260200190815260200160002060008282546108bc9190610d3f565b925050819055505b5b80600460008473ffffffffffffffffffffffffffffffffffffffff1673ffffffffffffffffffffffffffffffffffffffff168152602001908152602001600020819055507fddf252ad1be2c89b69c2b068fc378daa952ba7f163c4a11628f55a4df523b3ef33838360405161093c93929190610cd9565b60405180910390a15050565b600081519050919050565b600082825260208201905092915050565b60005b83811015610982578082015181840152602081019050610967565b83811115610991576000848401525b50505050565b6000601f19601f8301169050919050565b60006109b382610948565b6109bd8185610953565b93506109cd818560208601610964565b6109d681610997565b840191505092915050565b600060208201905081810360008301526109fb81846109a8565b905092915050565b600080fd5b600073ffffffffffffffffffffffffffffffffffffffff82169050919050565b6000610a3382610a08565b9050919050565b610a4381610a28565b8114610a4e57600080fd5b50565b600081359050610a6081610a3a565b92915050565b6000819050919050565b610a7981610a66565b8114610a8457600080fd5b50565b600081359050610a9681610a70565b92915050565b60008060408385031215610ab357610ab2610a03565b5b6000610ac185828601610a51565b9250506020610ad285828601610a87565b9150509250929050565b60008060408385031215610af357610af2610a03565b5b6000610b0185828601610a51565b9250506020610b1285828601610a51565b9150509250929050565b610b2581610a66565b82525050565b6000602082019050610b406000830184610b1c565b92915050565b600080600060608486031215610b5f57610b5e610a03565b5b6000610b6d86828701610a51565b9350506020610b7e86828701610a51565b9250506040610b8f86828701610a87565b9150509250925092565b600060ff82169050919050565b610baf81610b99565b82525050565b6000602082019050610bca6000830184610ba6565b92915050565b600060208284031215610be657610be5610a03565b5b6000610bf484828501610a51565b91505092915050565b7f4e487b7100000000000000000000000000000000000000000000000000000000600052602260045260246000fd5b60006002820490506001821680610c4457607f821691505b60208210811415610c5857610c57610bfd565b5b50919050565b7f496e73756666696369656e742042616c616e6365000000000000000000000000600082015250565b6000610c94601483610953565b9150610c9f82610c5e565b602082019050919050565b60006020820190508181036000830152610cc381610c87565b9050919050565b610cd381610a28565b82525050565b6000606082019050610cee6000830186610cca565b610cfb6020830185610cca565b610d086040830184610b1c565b949350505050565b7f4e487b7100000000000000000000000000000000000000000000000000000000600052601160045260246000fd5b6000610d4a82610a66565b9150610d5583610a66565b925082821015610d6857610d67610d10565b5b828203905092915050565b6000610d7e82610a66565b9150610d8983610a66565b9250827fffffffffffffffffffffffffffffffffffffffffffffffffffffffffffffffff03821115610dbe57610dbd610d10565b5b82820190509291505056fea2646970667358221220d17a1de4b140e6bd414a0dc9fcaa54003085d35fc13a953f866a2a51c7cf405064736f6c63430008090033",
  "linkReferences": {},
  "deployedLinkReferences": {}
}