{
  "_format": "hh-sol-artifact-1",
  "contractName": "Sikka",
  "sourceName": "contracts/Sikka.sol",
  "abi": [
    {
      "inputs": [],
      "stateMutability": "nonpayable",
      "type": "constructor"
    },
    {
      "anonymous": false,
      "inputs": [
        {
          "indexed": false,
          "internalType": "address",
          "name": "_owner",
          "type": "address"
        },
        {
          "indexed": false,
          "internalType": "address",
          "name": "_spender",
          "type": "address"
        },
        {
          "indexed": false,
          "internalType": "uint256",
          "name": "_amount",
          "type": "uint256"
        }
      ],
      "name": "Approved",
      "type": "event"
    },
    {
      "anonymous": false,
      "inputs": [
        {
          "indexed": false,
          "internalType": "address",
          "name": "_from",
          "type": "address"
        },
        {
          "indexed": false,
          "internalType": "address",
          "name": "_to",
          "type": "address"
        },
        {
          "indexed": false,
          "internalType": "uint256",
          "name": "_amount",
          "type": "uint256"
        }
      ],
      "name": "Transfer",
      "type": "event"
    },
    {
      "inputs": [
        {
          "internalType": "address",
          "name": "spender",
          "type": "address"
        },
        {
          "internalType": "uint256",
          "name": "amount",
          "type": "uint256"
        }
      ],
      "name": "approve",
      "outputs": [],
      "stateMutability": "nonpayable",
      "type": "function"
    },
    {
      "inputs": [
        {
          "internalType": "address",
          "name": "",
          "type": "address"
        },
        {
          "internalType": "address",
          "name": "",
          "type": "address"
        }
      ],
      "name": "approveToSpend",
      "outputs": [
        {
          "internalType": "uint256",
          "name": "",
          "type": "uint256"
        }
      ],
      "stateMutability": "view",
      "type": "function"
    },
    {
      "inputs": [
        {
          "internalType": "address",
          "name": "",
          "type": "address"
        }
      ],
      "name": "balanceOf",
      "outputs": [
        {
          "internalType": "uint256",
          "name": "",
          "type": "uint256"
        }
      ],
      "stateMutability": "view",
      "type": "function"
    },
    {
      "inputs": [],
      "name": "decimals",
      "outputs": [
        {
          "internalType": "uint8",
          "name": "",
          "type": "uint8"
        }
      ],
      "stateMutability": "view",
      "type": "function"
    },
    {
      "inputs": [],
      "name": "name",
      "outputs": [
        {
          "internalType": "string",
          "name": "",
          "type": "string"
        }
      ],
      "stateMutability": "view",
      "type": "function"
    },
    {
      "inputs": [],
      "name": "symbol",
      "outputs": [
        {
          "internalType": "string",
          "name": "",
          "type": "string"
        }
      ],
      "stateMutability": "view",
      "type": "function"
    },
    {
      "inputs": [],
      "name": "totalSupply",
      "outputs": [
        {
          "internalType": "uint256",
          "name": "",
          "type": "uint256"
        }
      ],
      "stateMutability": "view",
      "type": "function"
    },
    {
      "inputs": [
        {
          "internalType": "address",
          "name": "to",
          "type": "address"
        },
        {
          "internalType": "uint256",
          "name": "amount",
          "type": "uint256"
        }
      ],
      "name": "transfer",
      "outputs": [],
      "stateMutability": "nonpayable",
      "type": "function"
    },
    {
      "inputs": [
        {
          "internalType": "address",
          "name": "from",
          "type": "address"
        },
        {
          "internalType": "address",
          "name": "to",
          "type": "address"
        },
        {
          "internalType": "uint256",
          "name": "amount",
          "type": "uint256"
        }
      ],
      "name": "transferFrom",
      "outputs": [],
      "stateMutability": "nonpayable",
      "type": "function"
    }
  ],
  "bytecode": "0x60806040526040518060400160405280600581526020017f53696b6b61000000000000000000000000000000000000000000000000000000815250600090805190602001906200005192919062000124565b506040518060400160405280600581526020017f53494b4b41000000000000000000000000000000000000000000000000000000815250600190805190602001906200009f92919062000124565b5069d3c21bcecceda10000006002556012600360006101000a81548160ff021916908360ff160217905550348015620000d757600080fd5b50600254600460003373ffffffffffffffffffffffffffffffffffffffff1673ffffffffffffffffffffffffffffffffffffffff1681526020019081526020016000208190555062000239565b828054620001329062000203565b90600052602060002090601f016020900481019282620001565760008555620001a2565b82601f106200017157805160ff1916838001178555620001a2565b82800160010185558215620001a2579182015b82811115620001a157825182559160200191906001019062000184565b5b509050620001b19190620001b5565b5090565b5b80821115620001d0576000816000905550600101620001b6565b5090565b7f4e487b7100000000000000000000000000000000000000000000000000000000600052602260045260246000fd5b600060028204905060018216806200021c57607f821691505b60208210811415620002335762000232620001d4565b5b50919050565b610dd880620002496000396000f3fe608060405234801561001057600080fd5b50600436106100935760003560e01c806323b872dd1161006657806323b872dd14610120578063313ce5671461013c57806370a082311461015a57806395d89b411461018a578063a9059cbb146101a857610093565b806306fdde0314610098578063095ea7b3146100b65780630d358bae146100d257806318160ddd14610102575b600080fd5b6100a06101c4565b6040516100ad91906108bc565b60405180910390f35b6100d060048036038101906100cb9190610977565b610252565b005b6100ec60048036038101906100e791906109b7565b610394565b6040516100f99190610a06565b60405180910390f35b61010a6103b9565b6040516101179190610a06565b60405180910390f35b61013a60048036038101906101359190610a21565b6103bf565b005b6101446105fd565b6040516101519190610a90565b60405180910390f35b610174600480360381019061016f9190610aab565b610610565b6040516101819190610a06565b60405180910390f35b610192610628565b60405161019f91906108bc565b60405180910390f35b6101c260048036038101906101bd9190610977565b6106b6565b005b600080546101d190610b07565b80601f01602080910402602001604051908101604052809291908181526020018280546101fd90610b07565b801561024a5780601f1061021f5761010080835404028352916020019161024a565b820191906000526020600020905b81548152906001019060200180831161022d57829003601f168201915b505050505081565b80600460003373ffffffffffffffffffffffffffffffffffffffff1673ffffffffffffffffffffffffffffffffffffffff1681526020019081526020016000205410156102d4576040517f08c379a00000000000000000000000000000000000000000000000000000000081526004016102cb90610bab565b60405180910390fd5b80600560003373ffffffffffffffffffffffffffffffffffffffff1673ffffffffffffffffffffffffffffffffffffffff16815260200190815260200160002060008473ffffffffffffffffffffffffffffffffffffffff1673ffffffffffffffffffffffffffffffffffffffff168152602001908152602001600020819055507f80da462ebfbe41cfc9bc015e7a9a3c7a2a73dbccede72d8ceb583606c27f8f9033838360405161038893929190610bda565b60405180910390a15050565b6005602052816000526040600020602052806000526040600020600091509150505481565b60025481565b80600560008573ffffffffffffffffffffffffffffffffffffffff1673ffffffffffffffffffffffffffffffffffffffff16815260200190815260200160002060003373ffffffffffffffffffffffffffffffffffffffff1673ffffffffffffffffffffffffffffffffffffffff16815260200190815260200160002054101561047e576040517f08c379a000000000000000000000000000000000000000000000000000000000815260040161047590610c5d565b60405180910390fd5b80600460008573ffffffffffffffffffffffffffffffffffffffff1673ffffffffffffffffffffffffffffffffffffffff16815260200190815260200160002060008282546104cd9190610cac565b9250508190555080600560008573ffffffffffffffffffffffffffffffffffffffff1673ffffffffffffffffffffffffffffffffffffffff16815260200190815260200160002060003373ffffffffffffffffffffffffffffffffffffffff1673ffffffffffffffffffffffffffffffffffffffff16815260200190815260200160002060008282546105609190610cac565b9250508190555080600460008473ffffffffffffffffffffffffffffffffffffffff1673ffffffffffffffffffffffffffffffffffffffff16815260200190815260200160002060008282546105b69190610ce0565b925050819055507fddf252ad1be2c89b69c2b068fc378daa952ba7f163c4a11628f55a4df523b3ef8383836040516105f093929190610bda565b60405180910390a1505050565b600360009054906101000a900460ff1681565b60046020528060005260406000206000915090505481565b6001805461063590610b07565b80601f016020809104026020016040519081016040528092919081815260200182805461066190610b07565b80156106ae5780601f10610683576101008083540402835291602001916106ae565b820191906000526020600020905b81548152906001019060200180831161069157829003601f168201915b505050505081565b80600460003373ffffffffffffffffffffffffffffffffffffffff1673ffffffffffffffffffffffffffffffffffffffff168152602001908152602001600020541015610738576040517f08c379a000000000000000000000000000000000000000000000000000000000815260040161072f90610d82565b60405180910390fd5b80600460003373ffffffffffffffffffffffffffffffffffffffff1673ffffffffffffffffffffffffffffffffffffffff16815260200190815260200160002060008282546107879190610cac565b9250508190555080600460008473ffffffffffffffffffffffffffffffffffffffff1673ffffffffffffffffffffffffffffffffffffffff16815260200190815260200160002060008282546107dd9190610ce0565b925050819055507fddf252ad1be2c89b69c2b068fc378daa952ba7f163c4a11628f55a4df523b3ef33838360405161081793929190610bda565b60405180910390a15050565b600081519050919050565b600082825260208201905092915050565b60005b8381101561085d578082015181840152602081019050610842565b8381111561086c576000848401525b50505050565b6000601f19601f8301169050919050565b600061088e82610823565b610898818561082e565b93506108a881856020860161083f565b6108b181610872565b840191505092915050565b600060208201905081810360008301526108d68184610883565b905092915050565b600080fd5b600073ffffffffffffffffffffffffffffffffffffffff82169050919050565b600061090e826108e3565b9050919050565b61091e81610903565b811461092957600080fd5b50565b60008135905061093b81610915565b92915050565b6000819050919050565b61095481610941565b811461095f57600080fd5b50565b6000813590506109718161094b565b92915050565b6000806040838503121561098e5761098d6108de565b5b600061099c8582860161092c565b92505060206109ad85828601610962565b9150509250929050565b600080604083850312156109ce576109cd6108de565b5b60006109dc8582860161092c565b92505060206109ed8582860161092c565b9150509250929050565b610a0081610941565b82525050565b6000602082019050610a1b60008301846109f7565b92915050565b600080600060608486031215610a3a57610a396108de565b5b6000610a488682870161092c565b9350506020610a598682870161092c565b9250506040610a6a86828701610962565b9150509250925092565b600060ff82169050919050565b610a8a81610a74565b82525050565b6000602082019050610aa56000830184610a81565b92915050565b600060208284031215610ac157610ac06108de565b5b6000610acf8482850161092c565b91505092915050565b7f4e487b7100000000000000000000000000000000000000000000000000000000600052602260045260246000fd5b60006002820490506001821680610b1f57607f821691505b60208210811415610b3357610b32610ad8565b5b50919050565b7f496e73756666696369656e742042616c616e636520746f20626520617070726f60008201527f7665640000000000000000000000000000000000000000000000000000000000602082015250565b6000610b9560238361082e565b9150610ba082610b39565b604082019050919050565b60006020820190508181036000830152610bc481610b88565b9050919050565b610bd481610903565b82525050565b6000606082019050610bef6000830186610bcb565b610bfc6020830185610bcb565b610c0960408301846109f7565b949350505050565b7f496e73756666696369656e742062616c616e6365000000000000000000000000600082015250565b6000610c4760148361082e565b9150610c5282610c11565b602082019050919050565b60006020820190508181036000830152610c7681610c3a565b9050919050565b7f4e487b7100000000000000000000000000000000000000000000000000000000600052601160045260246000fd5b6000610cb782610941565b9150610cc283610941565b925082821015610cd557610cd4610c7d565b5b828203905092915050565b6000610ceb82610941565b9150610cf683610941565b9250827fffffffffffffffffffffffffffffffffffffffffffffffffffffffffffffffff03821115610d2b57610d2a610c7d565b5b828201905092915050565b7f496e73756666696369656e742042616c616e6365000000000000000000000000600082015250565b6000610d6c60148361082e565b9150610d7782610d36565b602082019050919050565b60006020820190508181036000830152610d9b81610d5f565b905091905056fea2646970667358221220bf11535aaf65efd5cd9bd2efdd340b10d9dc7684be7ef748cfc680cc62d1982664736f6c63430008090033",
  "linkReferences": {},
  "deployedLinkReferences": {}
}