{
  "_format": "hh-sol-artifact-1",
  "contractName": "Sikka",
  "sourceName": "contracts/Sikka.sol",
  "abi": [
    {
      "inputs": [],
      "stateMutability": "nonpayable",
      "type": "constructor"
    },
    {
      "anonymous": false,
      "inputs": [
        {
          "indexed": false,
          "internalType": "address",
          "name": "_owner",
          "type": "address"
        },
        {
          "indexed": false,
          "internalType": "address",
          "name": "_spender",
          "type": "address"
        },
        {
          "indexed": false,
          "internalType": "uint256",
          "name": "_amount",
          "type": "uint256"
        }
      ],
      "name": "Approved",
      "type": "event"
    },
    {
      "anonymous": false,
      "inputs": [
        {
          "indexed": false,
          "internalType": "address",
          "name": "_from",
          "type": "address"
        },
        {
          "indexed": false,
          "internalType": "address",
          "name": "_to",
          "type": "address"
        },
        {
          "indexed": false,
          "internalType": "uint256",
          "name": "_amount",
          "type": "uint256"
        }
      ],
      "name": "Transfer",
      "type": "event"
    },
    {
      "inputs": [
        {
          "internalType": "address",
          "name": "spender",
          "type": "address"
        },
        {
          "internalType": "uint256",
          "name": "amount",
          "type": "uint256"
        }
      ],
      "name": "approve",
      "outputs": [],
      "stateMutability": "nonpayable",
      "type": "function"
    },
    {
      "inputs": [
        {
          "internalType": "address",
          "name": "",
          "type": "address"
        },
        {
          "internalType": "address",
          "name": "",
          "type": "address"
        }
      ],
      "name": "approveToSpend",
      "outputs": [
        {
          "internalType": "uint256",
          "name": "",
          "type": "uint256"
        }
      ],
      "stateMutability": "view",
      "type": "function"
    },
    {
      "inputs": [
        {
          "internalType": "address",
          "name": "",
          "type": "address"
        }
      ],
      "name": "balanceOf",
      "outputs": [
        {
          "internalType": "uint256",
          "name": "",
          "type": "uint256"
        }
      ],
      "stateMutability": "view",
      "type": "function"
    },
    {
      "inputs": [],
      "name": "decimals",
      "outputs": [
        {
          "internalType": "uint8",
          "name": "",
          "type": "uint8"
        }
      ],
      "stateMutability": "view",
      "type": "function"
    },
    {
      "inputs": [],
      "name": "name",
      "outputs": [
        {
          "internalType": "string",
          "name": "",
          "type": "string"
        }
      ],
      "stateMutability": "view",
      "type": "function"
    },
    {
      "inputs": [],
      "name": "symbol",
      "outputs": [
        {
          "internalType": "string",
          "name": "",
          "type": "string"
        }
      ],
      "stateMutability": "view",
      "type": "function"
    },
    {
      "inputs": [],
      "name": "totalSupply",
      "outputs": [
        {
          "internalType": "uint256",
          "name": "",
          "type": "uint256"
        }
      ],
      "stateMutability": "view",
      "type": "function"
    },
    {
      "inputs": [
        {
          "internalType": "address",
          "name": "to",
          "type": "address"
        },
        {
          "internalType": "uint256",
          "name": "amount",
          "type": "uint256"
        }
      ],
      "name": "transfer",
      "outputs": [],
      "stateMutability": "nonpayable",
      "type": "function"
    },
    {
      "inputs": [
        {
          "internalType": "address",
          "name": "from",
          "type": "address"
        },
        {
          "internalType": "address",
          "name": "to",
          "type": "address"
        },
        {
          "internalType": "uint256",
          "name": "amount",
          "type": "uint256"
        }
      ],
      "name": "transferFrom",
      "outputs": [],
      "stateMutability": "nonpayable",
      "type": "function"
    }
  ],
  "bytecode": "0x60806040526040518060400160405280600581526020017f53696b6b61000000000000000000000000000000000000000000000000000000815250600090805190602001906200005192919062000124565b506040518060400160405280600581526020017f53494b4b41000000000000000000000000000000000000000000000000000000815250600190805190602001906200009f92919062000124565b5069d3c21bcecceda10000006002556012600360006101000a81548160ff021916908360ff160217905550348015620000d757600080fd5b50600254600460003373ffffffffffffffffffffffffffffffffffffffff1673ffffffffffffffffffffffffffffffffffffffff1681526020019081526020016000208190555062000239565b828054620001329062000203565b90600052602060002090601f016020900481019282620001565760008555620001a2565b82601f106200017157805160ff1916838001178555620001a2565b82800160010185558215620001a2579182015b82811115620001a157825182559160200191906001019062000184565b5b509050620001b19190620001b5565b5090565b5b80821115620001d0576000816000905550600101620001b6565b5090565b7f4e487b7100000000000000000000000000000000000000000000000000000000600052602260045260246000fd5b600060028204905060018216806200021c57607f821691505b60208210811415620002335762000232620001d4565b5b50919050565b610f2980620002496000396000f3fe608060405234801561001057600080fd5b50600436106100935760003560e01c806323b872dd1161006657806323b872dd14610120578063313ce5671461013c57806370a082311461015a57806395d89b411461018a578063a9059cbb146101a857610093565b806306fdde0314610098578063095ea7b3146100b65780630d358bae146100d257806318160ddd14610102575b600080fd5b6100a06101c4565b6040516100ad919061097b565b60405180910390f35b6100d060048036038101906100cb9190610a36565b610252565b005b6100ec60048036038101906100e79190610a76565b610394565b6040516100f99190610ac5565b60405180910390f35b61010a6103b9565b6040516101179190610ac5565b60405180910390f35b61013a60048036038101906101359190610ae0565b6103bf565b005b6101446106bc565b6040516101519190610b4f565b60405180910390f35b610174600480360381019061016f9190610b6a565b6106cf565b6040516101819190610ac5565b60405180910390f35b6101926106e7565b60405161019f919061097b565b60405180910390f35b6101c260048036038101906101bd9190610a36565b610775565b005b600080546101d190610bc6565b80601f01602080910402602001604051908101604052809291908181526020018280546101fd90610bc6565b801561024a5780601f1061021f5761010080835404028352916020019161024a565b820191906000526020600020905b81548152906001019060200180831161022d57829003601f168201915b505050505081565b80600460003373ffffffffffffffffffffffffffffffffffffffff1673ffffffffffffffffffffffffffffffffffffffff1681526020019081526020016000205410156102d4576040517f08c379a00000000000000000000000000000000000000000000000000000000081526004016102cb90610c6a565b60405180910390fd5b80600560003373ffffffffffffffffffffffffffffffffffffffff1673ffffffffffffffffffffffffffffffffffffffff16815260200190815260200160002060008473ffffffffffffffffffffffffffffffffffffffff1673ffffffffffffffffffffffffffffffffffffffff168152602001908152602001600020819055507f80da462ebfbe41cfc9bc015e7a9a3c7a2a73dbccede72d8ceb583606c27f8f9033838360405161038893929190610c99565b60405180910390a15050565b6005602052816000526040600020602052806000526040600020600091509150505481565b60025481565b6000600560008573ffffffffffffffffffffffffffffffffffffffff1673ffffffffffffffffffffffffffffffffffffffff16815260200190815260200160002060003373ffffffffffffffffffffffffffffffffffffffff1673ffffffffffffffffffffffffffffffffffffffff168152602001908152602001600020541161047e576040517f08c379a000000000000000000000000000000000000000000000000000000000815260040161047590610d42565b60405180910390fd5b80600560008573ffffffffffffffffffffffffffffffffffffffff1673ffffffffffffffffffffffffffffffffffffffff16815260200190815260200160002060003373ffffffffffffffffffffffffffffffffffffffff1673ffffffffffffffffffffffffffffffffffffffff16815260200190815260200160002054101561053d576040517f08c379a000000000000000000000000000000000000000000000000000000000815260040161053490610dae565b60405180910390fd5b80600460008573ffffffffffffffffffffffffffffffffffffffff1673ffffffffffffffffffffffffffffffffffffffff168152602001908152602001600020600082825461058c9190610dfd565b9250508190555080600560008573ffffffffffffffffffffffffffffffffffffffff1673ffffffffffffffffffffffffffffffffffffffff16815260200190815260200160002060003373ffffffffffffffffffffffffffffffffffffffff1673ffffffffffffffffffffffffffffffffffffffff168152602001908152602001600020600082825461061f9190610dfd565b9250508190555080600460008473ffffffffffffffffffffffffffffffffffffffff1673ffffffffffffffffffffffffffffffffffffffff16815260200190815260200160002060008282546106759190610e31565b925050819055507fddf252ad1be2c89b69c2b068fc378daa952ba7f163c4a11628f55a4df523b3ef8383836040516106af93929190610c99565b60405180910390a1505050565b600360009054906101000a900460ff1681565b60046020528060005260406000206000915090505481565b600180546106f490610bc6565b80601f016020809104026020016040519081016040528092919081815260200182805461072090610bc6565b801561076d5780601f106107425761010080835404028352916020019161076d565b820191906000526020600020905b81548152906001019060200180831161075057829003601f168201915b505050505081565b80600460003373ffffffffffffffffffffffffffffffffffffffff1673ffffffffffffffffffffffffffffffffffffffff1681526020019081526020016000205410156107f7576040517f08c379a00000000000000000000000000000000000000000000000000000000081526004016107ee90610ed3565b60405180910390fd5b80600460003373ffffffffffffffffffffffffffffffffffffffff1673ffffffffffffffffffffffffffffffffffffffff16815260200190815260200160002060008282546108469190610dfd565b9250508190555080600460008473ffffffffffffffffffffffffffffffffffffffff1673ffffffffffffffffffffffffffffffffffffffff168152602001908152602001600020600082825461089c9190610e31565b925050819055507fddf252ad1be2c89b69c2b068fc378daa952ba7f163c4a11628f55a4df523b3ef3383836040516108d693929190610c99565b60405180910390a15050565b600081519050919050565b600082825260208201905092915050565b60005b8381101561091c578082015181840152602081019050610901565b8381111561092b576000848401525b50505050565b6000601f19601f8301169050919050565b600061094d826108e2565b61095781856108ed565b93506109678185602086016108fe565b61097081610931565b840191505092915050565b600060208201905081810360008301526109958184610942565b905092915050565b600080fd5b600073ffffffffffffffffffffffffffffffffffffffff82169050919050565b60006109cd826109a2565b9050919050565b6109dd816109c2565b81146109e857600080fd5b50565b6000813590506109fa816109d4565b92915050565b6000819050919050565b610a1381610a00565b8114610a1e57600080fd5b50565b600081359050610a3081610a0a565b92915050565b60008060408385031215610a4d57610a4c61099d565b5b6000610a5b858286016109eb565b9250506020610a6c85828601610a21565b9150509250929050565b60008060408385031215610a8d57610a8c61099d565b5b6000610a9b858286016109eb565b9250506020610aac858286016109eb565b9150509250929050565b610abf81610a00565b82525050565b6000602082019050610ada6000830184610ab6565b92915050565b600080600060608486031215610af957610af861099d565b5b6000610b07868287016109eb565b9350506020610b18868287016109eb565b9250506040610b2986828701610a21565b9150509250925092565b600060ff82169050919050565b610b4981610b33565b82525050565b6000602082019050610b646000830184610b40565b92915050565b600060208284031215610b8057610b7f61099d565b5b6000610b8e848285016109eb565b91505092915050565b7f4e487b7100000000000000000000000000000000000000000000000000000000600052602260045260246000fd5b60006002820490506001821680610bde57607f821691505b60208210811415610bf257610bf1610b97565b5b50919050565b7f496e73756666696369656e742042616c616e636520746f20626520617070726f60008201527f7665640000000000000000000000000000000000000000000000000000000000602082015250565b6000610c546023836108ed565b9150610c5f82610bf8565b604082019050919050565b60006020820190508181036000830152610c8381610c47565b9050919050565b610c93816109c2565b82525050565b6000606082019050610cae6000830186610c8a565b610cbb6020830185610c8a565b610cc86040830184610ab6565b949350505050565b7f596f7520617265206e6f7420616c6c6f77656420746f207370656e64206f6e2060008201527f626568616c66206f662074686973206163636f756e7400000000000000000000602082015250565b6000610d2c6036836108ed565b9150610d3782610cd0565b604082019050919050565b60006020820190508181036000830152610d5b81610d1f565b9050919050565b7f496e73756666696369656e742062616c616e6365000000000000000000000000600082015250565b6000610d986014836108ed565b9150610da382610d62565b602082019050919050565b60006020820190508181036000830152610dc781610d8b565b9050919050565b7f4e487b7100000000000000000000000000000000000000000000000000000000600052601160045260246000fd5b6000610e0882610a00565b9150610e1383610a00565b925082821015610e2657610e25610dce565b5b828203905092915050565b6000610e3c82610a00565b9150610e4783610a00565b9250827fffffffffffffffffffffffffffffffffffffffffffffffffffffffffffffffff03821115610e7c57610e7b610dce565b5b828201905092915050565b7f496e73756666696369656e742042616c616e6365000000000000000000000000600082015250565b6000610ebd6014836108ed565b9150610ec882610e87565b602082019050919050565b60006020820190508181036000830152610eec81610eb0565b905091905056fea2646970667358221220e9b15ef717505b740976539d4db0b30d14fb6c31d4a28ab4fe6211679c26cd1d64736f6c63430008090033",
  "linkReferences": {},
  "deployedLinkReferences": {}
}